:020000040800F2
:10000000888B01209D0100081F0500081B050008C2
:100010001D05000877040008890900080000000099
:10002000000000000000000000000000850600083D
:10003000790400080000000089050008B5010008E7
:10004000B7010008B7010008B7010008B7010008B0
:10005000B7010008B7010008B7010008B7010008A0
:10006000B7010008B7010008B7010008B701000890
:10007000B7010008B7010008B7010008B701000880
:10008000B7010008B7010008B7010008B701000870
:10009000B7010008B7010008B7010008B701000860
:1000A000B7010008B7010008B7010008B701000850
:1000B000B7010008B7010008B7010008B701000840
:1000C000B7010008B7010008B7010008B701000830
:1000D000B7010008B9070008B7010008B701000818
:1000E000B7010008B7010008B7010008B701000810
:1000F000B7010008B7010008B7010008B701000800
:10010000B7010008B7010008B7010008B7010008EF
:10011000B7010008B7010008B7010008B7010008DF
:10012000B7010008B7010008B7010008B7010008CF
:10013000B7010008B7010008B7010008B7010008BF
:10014000B7010008B7010008B7010008B7010008AF
:10015000B7010008B7010008B7010008B70100089F
:10016000B7010008B7010008B7010008B70100088F
:10017000B7010008B7010008B7010008B70100087F
:10018000B7010008B7010008DFF80CD000F070F8E4
:1001900000480047FD0B0008888B01200648804777
:1001A00006480047FEE7FEE7FEE7FEE7FEE7FEE75C
:1001B000FEE7FEE7FEE7FEE75D07000889010008AD
:1001C000D2B201E000F8012B491EFBD27047002299
:1001D000F6E710B513460A4604461946FFF7F0FF46
:1001E000204610BD70B5064600F0D0FB04680546F9
:1001F0000A220021304600F002F82C6070BD2DE983
:10020000F04791460F4680460446002614F8015BED
:100210002DB100F03FF80068405DC007F6D12B2DEE
:1002200002D02D2D18D0641E4A463946204600F0D3
:1002300035F827B13968A14201D1C7F800807105AE
:100240004FF002040BD54042002803DD00F09EFB76
:100250000460A007BDE8F08746F48066E4E7002864
:10026000F8DA00F093FB04606FF00040F2E7000062
:10027000064C074D06E0E06840F0010394E80700F3
:1002800098471034AC42F6D3FFF782FF700E000897
:10029000900E0008004870476C0E00082DE9F05FD2
:1002A00082460078002715468B460AF10104B946BC
:1002B000302801D09DB113E014F8010B01277828F4
:1002C00003D0582801D045B10AE00DB1102D07D157
:1002D0000027102514F8010B02E0082500E00A258C
:1002E0000026B0460EE005FB080005FB06F10127DD
:1002F00001EB10461FFA80F8B6F5803F00D3B946EF
:1003000014F8010B294600F018F80028EBDABBF1CD
:10031000000F05D00FB1641E00E05446CBF800403A
:10032000B9F1000F06D000F031FB02210160C81EB8
:10033000BDE8F09F48EA0640FAE73A2800D2303894
:1003400020F02002412A01D3A2F13700884201D3D4
:100350004FF0FF307047002904D0816841F001015F
:1003600081607047816821F0010181607047000061
:1003700010B5074C226807490A40D0E90013194319
:10038000D0E90230034319431143216010BD00003E
:1003900004230140E030FCFFC06C80B2704702468D
:1003A000002012680A4200D00120704730B5426830
:1003B0000F4B1A400C790B6842EA04221343436046
:1003C00083680C4A1340D1E9034222434D798C687B
:1003D00044EA450422431A438260C26A22F470024E
:1003E000097D491EC9B242EA0151C16230BD000017
:1003F000FFFEFFFCFDF7FFC070B5072609290AD9EB
:10040000C568A1F10A0404EB4404A640B543A34027
:100410001D43C56007E0056901EB4104A640B543F3
:10042000A3401D4305611F23072A09D2446B521EB6
:1004300002EB820293409C4391400C43446370BDA5
:100440000D2A09D2046BD21F02EB820293409C4317
:1004500091400C43046370BDC46A0D3A02EB820202
:1004600093409C4391400C43C46270BD816841F04D
:10047000804181607047FEE770472DE9F04100221E
:1004800001274FF0030C07FA02F50B682B40AB4233
:100490002CD1066853000CFA03F4A64306600E79CB
:1004A000D0F800809E4046EA080606600E79012ECC
:1004B00001D0022E12D18668A64386604E79D0F80C
:1004C00008809E4046EA080686604668AE4346605D
:1004D00045688E799640B6B235434560C568A543F8
:1004E000C560CC799C40C3681C43C460521C102A70
:1004F000C9D3BDE8F08110B54B07DB0E9A40C9089F
:1005000000EB8100016A0F249C40A1430162016A53
:100510001143016210BD01837047FEE7FEE770479B
:1005200030B50F23C27801250178002A1FD0154A63
:10053000126802F4E062C2F5E062C2F30722C2F17F
:100540000404D3404278A24084781C401443220122
:1005500001F1E02181F80024007800F01F018D40B6
:100560004009800000F1E020C0F8005130BD01F0EA
:100570001F0085404809800000F1E020C0F880514C
:1005800030BD00000CED00E070470000054A002976
:1005900003D01168014311607047116881431160F5
:1005A0007047000030380240054A002903D0116826
:1005B000014311607047116881431160704700006A
:1005C00044380240054A002903D0116801431160F4
:1005D0007047116881431160704700002438024061
:1005E00070B5244B196801F00C01234C00291ED072
:1005F000224E04291DD008291DD00460196801F07D
:10060000F00109091E4A545C0168E14041601C6820
:1006100004F4E054A40A145D21FA04F484601B6815
:1006200003F460435B0BD25CD140C16070BD0460D9
:10063000E4E70660E2E70F4A121F1168C1F3805534
:10064000116801F03F0135B1B6FBF1F11468C4F354
:100650008814614305E0B4FBF1F11468C4F3881415
:1006600061431268C2F30142521C5200B1FBF2F125
:100670000160C3E7083802400024F40040787D019F
:1006800001000020704700000CB50022019200928A
:100690002749086840F4803008604FF4A043086898
:1006A00000F4003000900198401C0190009810B9AF
:1006B00001989842F3D10868800302D50120009088
:1006C00000E000920098012831D1194840300268BA
:1006D00042F0805202601748026842F440420260D1
:1006E0001348083002680260026842F40042026067
:1006F000026842F4A0520260021F0F4B13600A68A6
:1007000042F080720A600A689201FCD50B4A40F2FE
:1007100005711160016821F003010160016841F079
:10072000020101600168C1F381010229FAD10CBD07
:10073000003802400070004019544007003C02405D
:100740004FF0E021042804D0086920F0040008617B
:100750007047086940F004000861704710B51248FE
:10076000016841F4700101601048016841F0010125
:1007700001600E4A00210832116002680C4B1A40D9
:100780000260031D0B4A1A60026822F48022026094
:1007900006480C300160FFF777FF03494FF0006017
:1007A0008039086010BD000088ED00E0003802408C
:1007B000FFFFF6FE1030002470B5164C40F22551B4
:1007C000204600F040F800280ED0204600F0D4F873
:1007D000C1B2114A1088030406D444044FF0000348
:1007E00007D50A2901D0138070BD40F40040108065
:1007F00070BD0D290AD0094DC0F30D042955401CC8
:1008000080B21080C728F3D9138070BD40F48040B7
:10081000108070BD0010014016000020BC86012031
:10082000002904D0818941F4005181817047818978
:1008300021F40051818170470246002012880A424B
:1008400000D00120704770B5002440F66A12C1F351
:10085000421301F01F05012606FA05F2012B0CD008
:10086000022B0DD0838A1340090A8E400088304045
:100870000BB100B10124204670BD83891340F3E71A
:10088000038A1340F0E710B540F66A13C1F3421330
:1008900001F01F040121A140012B07D0022B07D03A
:1008A00014303AB102680A43026010BD0C30F8E718
:1008B0001030F6E702688A43026010BD7FB5044637
:1008C0000D46208A20F44051E88808432082A08900
:1008D00041F20C618843A9882A8911436A8902433D
:1008E0001143A181A08A20F44071A8890843A08205
:1008F0006846FFF775FE1E48844202D01D488442B8
:1009000001D1039800E00298A189090408D500EB01
:10091000C00101EB001029684900B0FBF1F007E0CD
:1009200000EBC00101EB001029688900B0FBF1F079
:100930006422B0FBF2F109010B096FF018056B435B
:1009400000EB8300A3891D044FF0320307D503EBAE
:10095000C000B0FBF2F000F00700084306E003EB34
:100960000010B0FBF2F000F00F00084320817FBDC3
:1009700000100140001401408088C0F30800704757
:10098000C1F3080181807047FEE70000004870470E
:100990001800002002E008C8121F08C1002AFAD17E
:1009A00070477047002001E001C1121F002AFBD1EF
:1009B00070470000F0B587B01FA1D1E90023896816
:1009C000CDE9042306910021002300220192029226
:1009D000039204AC9DF8105002E0AA4205D0491CD5
:1009E000425C12B1665C002EF7D1425C4FF0FF36DC
:1009F0004AB100224518A75C15F802C0674504D02B
:100A0000304607B0F0BD3046FBE7521C082AF2DB47
:100A100001AF08E0A4F130050A2D01D33046F0E71C
:100A2000FC54491C5B1C4418A45C002CF2D101A8A6
:100A3000FFF7D8FBE5E70000454447454E554D3AE2
:100A40000000000010B504466FF00400FFF778FEC8
:100A50000649E008087000EB4002C2EBC0104FF6F8
:100A6000FF7202EAC000488010BD000012000020A2
:100A70000B49097848434FF0E021486100238B611E
:100A8000086940F0010008610869C20701D0C0038D
:100A9000FAD5086920F0010008618B6170470000F9
:100AA0001200002010B59AB04FF0FF34642101A865
:100AB000FFF78DFB01A800F0F5F818B101A8FFF7CA
:100AC00079FF04460548611C02D00121017001E054
:100AD000002101701AB0204610BD00000000002067
:100AE0007CB501210820FFF751FD4FF400740094FC
:100AF00000208DF8040003208DF8050001208DF8FA
:100B00000700054D69462846FFF7B7FC21462846F1
:100B1000FFF701FD7CBD0000000C024030B58DB038
:100B200001210846FFF732FD01210D022846FFF79B
:100B30003BFD08210B9103218DF8301000248DF826
:100B400033400BA91348FFF798FC01212846FFF713
:100B500039FD00212846FFF735FD07940A940994D2
:100B6000089407A8FFF704FC01948DF808408DF85D
:100B700009400394059401208DF81800064C01A942
:100B80002046FFF713FC01212046FFF7E4FB0DB0E0
:100B9000012030BD000002400020014010B50A4C89
:100BA000012301461A462046FFF726FC2046FFF7A0
:100BB0005DFC02212046FFF7F2FB0028F9D0204619
:100BC000BDE81040FFF7E8BB002001402DE9F041EF
:100BD00007460E460025002408E03846FFF7DEFFF2
:100BE00005440220FFF744FF641CA4B2B442F4D3CE
:100BF000B5FBF6F080B2BDE8F0810000A820FFF759
:100C000021FF4FF4E13000F067F8FFF769FFFFF7CD
:100C100085FF074C074DFFF745FF21780129FAD1E1
:100C20000028F8DD80B2294600F006F8F3E700005E
:100C300000000020809698002DE9F05F80468946EC
:100C4000002400250120154F4FF6FF7AA7F800A0D9
:100C5000DFF84CB0DBF82412CEB2012E00D170B117
:100C60000120FFF705FF6D1C3046444511D9388837
:100C7000504510D02146094800F09EF80BE01421A1
:100C80000320FFF7A3FF27F81400641CA4B200257B
:100C9000EAE74D45DED92046BDE8F09F1C00002064
:100CA0000080414270B504460021094D28880204A5
:100CB00001D4002070BDC0F30D000022054B03E0FD
:100CC0005E5C66545A54491C8142F9DB2A8070BD2F
:100CD00016000020BC860120F0B587B00546012132
:100CE0000846FFF753FC01211020FFF75DFC234F5E
:100CF000072209213846FFF7FEFB07220A21384662
:100D0000FFF7F9FB4FF4C060059002208DF8180042
:100D10008DF8190000248DF81A4001268DF81B600B
:100D200005A93846FFF7A9FB0195ADF80840ADF8D5
:100D30000A40ADF80C40ADF810400C20ADF80E00A4
:100D40000F4C01A92046FFF7B9FD01212046FFF70E
:100D500067FD012240F225512046FFF794FD252032
:100D60008DF8000003208DF801008DF802008DF849
:100D700003606846FFF7D4FB07B0F0BD00000240F7
:100D80000010014010B50446200A00F005F8E0B25A
:100D9000BDE81040AFF3008010B5064C0146204678
:100DA000FFF7EEFD40212046FFF746FD0128F9D16F
:100DB00010BD0000001001402DE9F04105460E462F
:100DC00000244FF6FF773846FFF7DCFF05E035F8E3
:100DD0001400FFF7D7FF641CA4B2B442F7D338461F
:100DE000BDE8F041FFF7CEBF0040404040404040EA
:100DF00040404141414141404040404040404040EE
:100E00004040404040404040400502020202020291
:100E100002020202020202020220202020202020E0
:100E200020202002020202020202909090909090F4
:100E300010101010101010101010101010101010B2
:100E40001010101002020202020288888888888826
:100E50000808080808080808080808080808080812
:100E6000080808080202020240000000E90D00081C
:100E7000900E0008000000201C00000094090008EB
:100E8000AC0E00081C0000206C8B0100A4090008B7
:100E90000000000000010203040102030406070829
:0C0EA0000900000000000000000000003D
:040000050800018965
:00000001FF
